:020000020000FC
:040000000C94050156
:040038000C944D01D6
:10020000000201020202030204020FE50DBF04E036
:100210000EBFA09AA8980FEF07BB08BB002701BB31
:100220000FEF02BB7727112700E407B90DEC06B9E1
:1002300078948099FECF71FDFCCF73FDFACF819940
:10024000F8CF70FF0C943D01C198C798C598C49829
:1002500077D0C298C69873FF03C0C3988299C59A95
:10026000849B0BC0859B09C070FF07C074FD12C042
:10027000879B10C0C59BEFCFF3CF0FEF08BBC09893
:10028000A89A8699FECFA898C09A4AD0C09848D01C
:100290008799FACF0FEF08BBCCCF0F93F2E0E0E0E5
:1002A000110F00E0E10FF01F2591349144B155B1D9
:1002B000169510300FB701FD7E7F11300FB701FD8D
:1002C0007D7F12300FB701FD777F13300FB701FD2F
:1002D0007B7F14300FB701FD7F7E24173507A4F410
:1002E00010300FB701FD716011300FB701FD726062
:1002F00012300FB701FD786013300FB701FD746045
:1003000014300FB701FD7061139515300FB701FD63
:10031000112707B1007E012B07B9369A0F91189566
:100320000F9304E008BF00EF0DBD0EEB0CBD05E020
:100330000EBD879BAFCF08B702FFFBCF0F9108958B
:100340000F9304E008BF05E90DBD00E30CBD05E017
:100350000EBD879B9FCF08B702FFFBCF0F9108957B
:00000001FF
